{
  "_format": "hh-sol-artifact-1",
  "contractName": "UserNotes",
  "sourceName": "contracts/UserNotes.sol",
  "abi": [
    {
      "inputs": [],
      "stateMutability": "nonpayable",
      "type": "constructor"
    },
    {
      "anonymous": false,
      "inputs": [
        {
          "indexed": false,
          "internalType": "uint256",
          "name": "noteId",
          "type": "uint256"
        }
      ],
      "name": "noteDelete",
      "type": "event"
    },
    {
      "anonymous": false,
      "inputs": [
        {
          "indexed": false,
          "internalType": "uint256",
          "name": "noteId",
          "type": "uint256"
        },
        {
          "indexed": false,
          "internalType": "string",
          "name": "title",
          "type": "string"
        },
        {
          "indexed": false,
          "internalType": "string",
          "name": "desc",
          "type": "string"
        },
        {
          "indexed": false,
          "internalType": "string",
          "name": "noteData",
          "type": "string"
        },
        {
          "indexed": false,
          "internalType": "string",
          "name": "addDate",
          "type": "string"
        },
        {
          "indexed": false,
          "internalType": "address",
          "name": "acountAddr",
          "type": "address"
        },
        {
          "indexed": false,
          "internalType": "bool",
          "name": "isDel",
          "type": "bool"
        }
      ],
      "name": "notePublished",
      "type": "event"
    },
    {
      "anonymous": false,
      "inputs": [
        {
          "indexed": false,
          "internalType": "uint256",
          "name": "noteId",
          "type": "uint256"
        },
        {
          "indexed": false,
          "internalType": "string",
          "name": "title",
          "type": "string"
        },
        {
          "indexed": false,
          "internalType": "string",
          "name": "desc",
          "type": "string"
        },
        {
          "indexed": false,
          "internalType": "string",
          "name": "noteData",
          "type": "string"
        },
        {
          "indexed": false,
          "internalType": "string",
          "name": "addDate",
          "type": "string"
        },
        {
          "indexed": false,
          "internalType": "string",
          "name": "updateDate",
          "type": "string"
        },
        {
          "indexed": false,
          "internalType": "address",
          "name": "acountAddr",
          "type": "address"
        },
        {
          "indexed": false,
          "internalType": "bool",
          "name": "isDel",
          "type": "bool"
        }
      ],
      "name": "noteUpdate",
      "type": "event"
    },
    {
      "inputs": [
        {
          "internalType": "string",
          "name": "_title",
          "type": "string"
        },
        {
          "internalType": "string",
          "name": "_desc",
          "type": "string"
        },
        {
          "internalType": "string",
          "name": "_noteData",
          "type": "string"
        },
        {
          "internalType": "string",
          "name": "_addDate",
          "type": "string"
        }
      ],
      "name": "addNote",
      "outputs": [],
      "stateMutability": "payable",
      "type": "function"
    },
    {
      "inputs": [
        {
          "internalType": "uint256",
          "name": "_noteId",
          "type": "uint256"
        }
      ],
      "name": "delNote",
      "outputs": [],
      "stateMutability": "payable",
      "type": "function"
    },
    {
      "inputs": [
        {
          "internalType": "uint256",
          "name": "_noteId",
          "type": "uint256"
        }
      ],
      "name": "deleteNote",
      "outputs": [],
      "stateMutability": "payable",
      "type": "function"
    },
    {
      "inputs": [],
      "name": "noteCount",
      "outputs": [
        {
          "internalType": "uint256",
          "name": "",
          "type": "uint256"
        }
      ],
      "stateMutability": "view",
      "type": "function"
    },
    {
      "inputs": [
        {
          "internalType": "uint256",
          "name": "",
          "type": "uint256"
        }
      ],
      "name": "notes",
      "outputs": [
        {
          "internalType": "uint256",
          "name": "noteId",
          "type": "uint256"
        },
        {
          "internalType": "string",
          "name": "title",
          "type": "string"
        },
        {
          "internalType": "string",
          "name": "desc",
          "type": "string"
        },
        {
          "internalType": "string",
          "name": "noteData",
          "type": "string"
        },
        {
          "internalType": "string",
          "name": "addDate",
          "type": "string"
        },
        {
          "internalType": "string",
          "name": "updateDate",
          "type": "string"
        },
        {
          "internalType": "address",
          "name": "acountAddr",
          "type": "address"
        },
        {
          "internalType": "bool",
          "name": "isDel",
          "type": "bool"
        }
      ],
      "stateMutability": "view",
      "type": "function"
    },
    {
      "inputs": [],
      "name": "owner",
      "outputs": [
        {
          "internalType": "address",
          "name": "",
          "type": "address"
        }
      ],
      "stateMutability": "view",
      "type": "function"
    },
    {
      "inputs": [
        {
          "internalType": "uint256",
          "name": "_noteId",
          "type": "uint256"
        }
      ],
      "name": "recoveryNote",
      "outputs": [],
      "stateMutability": "payable",
      "type": "function"
    },
    {
      "inputs": [
        {
          "internalType": "uint256",
          "name": "_noteId",
          "type": "uint256"
        },
        {
          "internalType": "string",
          "name": "_title",
          "type": "string"
        },
        {
          "internalType": "string",
          "name": "_desc",
          "type": "string"
        },
        {
          "internalType": "string",
          "name": "_noteData",
          "type": "string"
        },
        {
          "internalType": "string",
          "name": "_updateDate",
          "type": "string"
        }
      ],
      "name": "updateNote",
      "outputs": [],
      "stateMutability": "payable",
      "type": "function"
    }
  ],
  "bytecode": "0x608060405234801561001057600080fd5b506000600181905550336000806101000a81548173ffffffffffffffffffffffffffffffffffffffff021916908373ffffffffffffffffffffffffffffffffffffffff1602179055506118c5806100686000396000f3fe60806040526004361061007b5760003560e01c806361c3a7e61161004e57806361c3a7e6146100ff5780638da5cb5b14610143578063c47177f41461016e578063e444f8ed1461018a5761007b565b806306604c3c14610080578063317a4c761461009c5780633ff3005d146100c75780634f53a20d146100e3575b600080fd5b61009a60048036038101906100959190611084565b6101a6565b005b3480156100a857600080fd5b506100b1610330565b6040516100be9190611391565b60405180910390f35b6100e160048036038101906100dc91906110ad565b610336565b005b6100fd60048036038101906100f89190610fc1565b61051f565b005b34801561010b57600080fd5b5061012660048036038101906101219190611084565b6107b1565b60405161013a989796959493929190611437565b60405180910390f35b34801561014f57600080fd5b50610158610ace565b60405161016591906112f6565b60405180910390f35b61018860048036038101906101839190611084565b610af2565b005b6101a4600480360381019061019f9190611084565b610cd6565b005b66038d7ea4c6800034146101ef576040517f08c379a00000000000000000000000000000000000000000000000000000000081526004016101e690611311565b60405180910390fd5b60008111801561020157506001548111155b610240576040517f08c379a000000000000000000000000000000000000000000000000000000000815260040161023790611351565b60405180910390fd5b60006002600083815260200190815260200160002090508060060160149054906101000a900460ff166102a8576040517f08c379a000000000000000000000000000000000000000000000000000000000815260040161029f90611331565b60405180910390fd5b60008160060160146101000a81548160ff02191690831515021790555060008054906101000a900473ffffffffffffffffffffffffffffffffffffffff1673ffffffffffffffffffffffffffffffffffffffff166108fc349081150290604051600060405180830381858888f1935050505015801561032b573d6000803e3d6000fd5b505050565b60015481565b66038d7ea4c68000341461037f576040517f08c379a000000000000000000000000000000000000000000000000000000000815260040161037690611311565b60405180910390fd5b60008511801561039157506001548511155b6103d0576040517f08c379a00000000000000000000000000000000000000000000000000000000081526004016103c790611351565b60405180910390fd5b6000600260008781526020019081526020016000209050848160010190805190602001906103ff929190610e61565b5083816002019080519060200190610418929190610e61565b5082816003019080519060200190610431929190610e61565b508181600501908051906020019061044a929190610e61565b507fc992e443659d51e1c4bcab656911ad18f5189f56339def927a3fe9e37df6af67868260010183600201846003018560040186600501338860060160149054906101000a900460ff166040516104a89897969594939291906114d8565b60405180910390a160008054906101000a900473ffffffffffffffffffffffffffffffffffffffff1673ffffffffffffffffffffffffffffffffffffffff166108fc349081150290604051600060405180830381858888f19350505050158015610516573d6000803e3d6000fd5b50505050505050565b66038d7ea4c680003414610568576040517f08c379a000000000000000000000000000000000000000000000000000000000815260040161055f90611311565b60405180910390fd5b6001600081548092919061057b906116ed565b919050555060405180610100016040528060015481526020018581526020018481526020018381526020018281526020016040518060200160405280600081525081526020013373ffffffffffffffffffffffffffffffffffffffff1681526020016000151581525060026000600154815260200190815260200160002060008201518160000155602082015181600101908051906020019061061f929190610e61565b50604082015181600201908051906020019061063c929190610e61565b506060820151816003019080519060200190610659929190610e61565b506080820151816004019080519060200190610676929190610e61565b5060a0820151816005019080519060200190610693929190610e61565b5060c08201518160060160006101000a81548173ffffffffffffffffffffffffffffffffffffffff021916908373ffffffffffffffffffffffffffffffffffffffff16021790555060e08201518160060160146101000a81548160ff0219169083151502179055509050507f79ef26b2b166980d4738f57d2bda6034535e3a0a2a7caa4ba81ef61c5cdb501e6001548585858533600060405161073c97969594939291906113ac565b60405180910390a160008054906101000a900473ffffffffffffffffffffffffffffffffffffffff1673ffffffffffffffffffffffffffffffffffffffff166108fc349081150290604051600060405180830381858888f193505050501580156107aa573d6000803e3d6000fd5b5050505050565b60026020528060005260406000206000915090508060000154908060010180546107da9061168a565b80601f01602080910402602001604051908101604052809291908181526020018280546108069061168a565b80156108535780601f1061082857610100808354040283529160200191610853565b820191906000526020600020905b81548152906001019060200180831161083657829003601f168201915b5050505050908060020180546108689061168a565b80601f01602080910402602001604051908101604052809291908181526020018280546108949061168a565b80156108e15780601f106108b6576101008083540402835291602001916108e1565b820191906000526020600020905b8154815290600101906020018083116108c457829003601f168201915b5050505050908060030180546108f69061168a565b80601f01602080910402602001604051908101604052809291908181526020018280546109229061168a565b801561096f5780601f106109445761010080835404028352916020019161096f565b820191906000526020600020905b81548152906001019060200180831161095257829003601f168201915b5050505050908060040180546109849061168a565b80601f01602080910402602001604051908101604052809291908181526020018280546109b09061168a565b80156109fd5780601f106109d2576101008083540402835291602001916109fd565b820191906000526020600020905b8154815290600101906020018083116109e057829003601f168201915b505050505090806005018054610a129061168a565b80601f0160208091040260200160405190810160405280929190818152602001828054610a3e9061168a565b8015610a8b5780601f10610a6057610100808354040283529160200191610a8b565b820191906000526020600020905b815481529060010190602001808311610a6e57829003601f168201915b5050505050908060060160009054906101000a900473ffffffffffffffffffffffffffffffffffffffff16908060060160149054906101000a900460ff16905088565b60008054906101000a900473ffffffffffffffffffffffffffffffffffffffff1681565b66038d7ea4c680003414610b3b576040517f08c379a0000000000000000000000000000000000000000000000000000000008152600401610b3290611311565b60405180910390fd5b600081118015610b4d57506001548111155b610b8c576040517f08c379a0000000000000000000000000000000000000000000000000000000008152600401610b8390611351565b60405180910390fd5b60026000828152602001908152602001600020600080820160009055600182016000610bb89190610ee7565b600282016000610bc89190610ee7565b600382016000610bd89190610ee7565b600482016000610be89190610ee7565b600582016000610bf89190610ee7565b6006820160006101000a81549073ffffffffffffffffffffffffffffffffffffffff02191690556006820160146101000a81549060ff021916905550507fdff1e7e5f84a8bdb12e3deea59ec53c8c676770841b1a678b0974d57353ea8bc81604051610c649190611391565b60405180910390a160008054906101000a900473ffffffffffffffffffffffffffffffffffffffff1673ffffffffffffffffffffffffffffffffffffffff166108fc349081150290604051600060405180830381858888f19350505050158015610cd2573d6000803e3d6000fd5b5050565b66038d7ea4c680003414610d1f576040517f08c379a0000000000000000000000000000000000000000000000000000000008152600401610d1690611311565b60405180910390fd5b600081118015610d3157506001548111155b610d70576040517f08c379a0000000000000000000000000000000000000000000000000000000008152600401610d6790611351565b60405180910390fd5b60006002600083815260200190815260200160002090508060060160149054906101000a900460ff1615610dd9576040517f08c379a0000000000000000000000000000000000000000000000000000000008152600401610dd090611371565b60405180910390fd5b60018160060160146101000a81548160ff02191690831515021790555060008054906101000a900473ffffffffffffffffffffffffffffffffffffffff1673ffffffffffffffffffffffffffffffffffffffff166108fc349081150290604051600060405180830381858888f19350505050158015610e5c573d6000803e3d6000fd5b505050565b828054610e6d9061168a565b90600052602060002090601f016020900481019282610e8f5760008555610ed6565b82601f10610ea857805160ff1916838001178555610ed6565b82800160010185558215610ed6579182015b82811115610ed5578251825591602001919060010190610eba565b5b509050610ee39190610f27565b5090565b508054610ef39061168a565b6000825580601f10610f055750610f24565b601f016020900490600052602060002090810190610f239190610f27565b5b50565b5b80821115610f40576000816000905550600101610f28565b5090565b6000610f57610f528461159e565b611579565b905082815260208101848484011115610f6f57600080fd5b610f7a848285611648565b509392505050565b600082601f830112610f9357600080fd5b8135610fa3848260208601610f44565b91505092915050565b600081359050610fbb81611878565b92915050565b60008060008060808587031215610fd757600080fd5b600085013567ffffffffffffffff811115610ff157600080fd5b610ffd87828801610f82565b945050602085013567ffffffffffffffff81111561101a57600080fd5b61102687828801610f82565b935050604085013567ffffffffffffffff81111561104357600080fd5b61104f87828801610f82565b925050606085013567ffffffffffffffff81111561106c57600080fd5b61107887828801610f82565b91505092959194509250565b60006020828403121561109657600080fd5b60006110a484828501610fac565b91505092915050565b600080600080600060a086880312156110c557600080fd5b60006110d388828901610fac565b955050602086013567ffffffffffffffff8111156110f057600080fd5b6110fc88828901610f82565b945050604086013567ffffffffffffffff81111561111957600080fd5b61112588828901610f82565b935050606086013567ffffffffffffffff81111561114257600080fd5b61114e88828901610f82565b925050608086013567ffffffffffffffff81111561116b57600080fd5b61117788828901610f82565b9150509295509295909350565b61118d81611600565b82525050565b61119c81611612565b82525050565b60006111ad826115e4565b6111b781856115ef565b93506111c7818560208601611657565b6111d0816117c3565b840191505092915050565b600081546111e88161168a565b6111f281866115ef565b9450600182166000811461120d576001811461121f57611252565b60ff1983168652602086019350611252565b611228856115cf565b60005b8381101561124a5781548189015260018201915060208101905061122b565b808801955050505b50505092915050565b60006112686019836115ef565b9150611273826117d4565b602082019050919050565b600061128b6015836115ef565b9150611296826117fd565b602082019050919050565b60006112ae6015836115ef565b91506112b982611826565b602082019050919050565b60006112d16014836115ef565b91506112dc8261184f565b602082019050919050565b6112f08161163e565b82525050565b600060208201905061130b6000830184611184565b92915050565b6000602082019050818103600083015261132a8161125b565b9050919050565b6000602082019050818103600083015261134a8161127e565b9050919050565b6000602082019050818103600083015261136a816112a1565b9050919050565b6000602082019050818103600083015261138a816112c4565b9050919050565b60006020820190506113a660008301846112e7565b92915050565b600060e0820190506113c1600083018a6112e7565b81810360208301526113d381896111a2565b905081810360408301526113e781886111a2565b905081810360608301526113fb81876111a2565b9050818103608083015261140f81866111a2565b905061141e60a0830185611184565b61142b60c0830184611193565b98975050505050505050565b60006101008201905061144d600083018b6112e7565b818103602083015261145f818a6111a2565b9050818103604083015261147381896111a2565b9050818103606083015261148781886111a2565b9050818103608083015261149b81876111a2565b905081810360a08301526114af81866111a2565b90506114be60c0830185611184565b6114cb60e0830184611193565b9998505050505050505050565b6000610100820190506114ee600083018b6112e7565b8181036020830152611500818a6111db565b9050818103604083015261151481896111db565b9050818103606083015261152881886111db565b9050818103608083015261153c81876111db565b905081810360a083015261155081866111db565b905061155f60c0830185611184565b61156c60e0830184611193565b9998505050505050505050565b6000611583611594565b905061158f82826116bc565b919050565b6000604051905090565b600067ffffffffffffffff8211156115b9576115b8611794565b5b6115c2826117c3565b9050602081019050919050565b60008190508160005260206000209050919050565b600081519050919050565b600082825260208201905092915050565b600061160b8261161e565b9050919050565b60008115159050919050565b600073ffffffffffffffffffffffffffffffffffffffff82169050919050565b6000819050919050565b82818337600083830152505050565b60005b8381101561167557808201518184015260208101905061165a565b83811115611684576000848401525b50505050565b600060028204905060018216806116a257607f821691505b602082108114156116b6576116b5611765565b5b50919050565b6116c5826117c3565b810181811067ffffffffffffffff821117156116e4576116e3611794565b5b80604052505050565b60006116f88261163e565b91507fffffffffffffffffffffffffffffffffffffffffffffffffffffffffffffffff82141561172b5761172a611736565b5b600182019050919050565b7f4e487b7100000000000000000000000000000000000000000000000000000000600052601160045260246000fd5b7f4e487b7100000000000000000000000000000000000000000000000000000000600052602260045260246000fd5b7f4e487b7100000000000000000000000000000000000000000000000000000000600052604160045260246000fd5b6000601f19601f8301169050919050565b7f506c65617365207375626d697420302e30303120657468657200000000000000600082015250565b7f6e6f746520616c7265616479207265636f766572790000000000000000000000600082015250565b7f5f6e6f7465496420646f65736e27742065786973740000000000000000000000600082015250565b7f6e6f746520616c72656164792064656c65746564000000000000000000000000600082015250565b6118818161163e565b811461188c57600080fd5b5056fea2646970667358221220edaf279f100219016b671bb7b07a86942b8d954b9a97bb907c751321970aefde64736f6c63430008040033",
  "linkReferences": {},
  "deployedLinkReferences": {}
}