{
  "_format": "hh-sol-artifact-1",
  "contractName": "User",
  "sourceName": "contracts/User.sol",
  "abi": [
    {
      "inputs": [],
      "stateMutability": "nonpayable",
      "type": "constructor"
    },
    {
      "inputs": [
        {
          "internalType": "address",
          "name": "",
          "type": "address"
        }
      ],
      "name": "accounts",
      "outputs": [
        {
          "internalType": "string",
          "name": "username",
          "type": "string"
        },
        {
          "internalType": "string",
          "name": "pfp",
          "type": "string"
        },
        {
          "internalType": "address",
          "name": "acount",
          "type": "address"
        }
      ],
      "stateMutability": "view",
      "type": "function"
    },
    {
      "inputs": [
        {
          "internalType": "string",
          "name": "_username",
          "type": "string"
        },
        {
          "internalType": "string",
          "name": "_pfp",
          "type": "string"
        }
      ],
      "name": "bangUserInfo",
      "outputs": [],
      "stateMutability": "payable",
      "type": "function"
    },
    {
      "inputs": [],
      "name": "owner",
      "outputs": [
        {
          "internalType": "address",
          "name": "",
          "type": "address"
        }
      ],
      "stateMutability": "view",
      "type": "function"
    }
  ],
  "bytecode": "0x608060405234801561001057600080fd5b50336000806101000a81548173ffffffffffffffffffffffffffffffffffffffff021916908373ffffffffffffffffffffffffffffffffffffffff1602179055506108b3806100606000396000f3fe6080604052600436106100345760003560e01c806335af2a39146100395780635e5c06e2146100555780638da5cb5b14610094575b600080fd5b610053600480360381019061004e919061052e565b6100bf565b005b34801561006157600080fd5b5061007c60048036038101906100779190610505565b610267565b60405161008b93929190610620565b60405180910390f35b3480156100a057600080fd5b506100a96103c1565b6040516100b69190610605565b60405180910390f35b66038d7ea4c680003414610108576040517f08c379a00000000000000000000000000000000000000000000000000000000081526004016100ff90610665565b60405180910390fd5b60405180606001604052808381526020018281526020013373ffffffffffffffffffffffffffffffffffffffff16815250600160003373ffffffffffffffffffffffffffffffffffffffff1673ffffffffffffffffffffffffffffffffffffffff16815260200190815260200160002060008201518160000190805190602001906101949291906103e5565b5060208201518160010190805190602001906101b19291906103e5565b5060408201518160020160006101000a81548173ffffffffffffffffffffffffffffffffffffffff021916908373ffffffffffffffffffffffffffffffffffffffff16021790555090505060008054906101000a900473ffffffffffffffffffffffffffffffffffffffff1673ffffffffffffffffffffffffffffffffffffffff166108fc349081150290604051600060405180830381858888f19350505050158015610262573d6000803e3d6000fd5b505050565b600160205280600052604060002060009150905080600001805461028a9061076b565b80601f01602080910402602001604051908101604052809291908181526020018280546102b69061076b565b80156103035780601f106102d857610100808354040283529160200191610303565b820191906000526020600020905b8154815290600101906020018083116102e657829003601f168201915b5050505050908060010180546103189061076b565b80601f01602080910402602001604051908101604052809291908181526020018280546103449061076b565b80156103915780601f1061036657610100808354040283529160200191610391565b820191906000526020600020905b81548152906001019060200180831161037457829003601f168201915b5050505050908060020160009054906101000a900473ffffffffffffffffffffffffffffffffffffffff16905083565b60008054906101000a900473ffffffffffffffffffffffffffffffffffffffff1681565b8280546103f19061076b565b90600052602060002090601f016020900481019282610413576000855561045a565b82601f1061042c57805160ff191683800117855561045a565b8280016001018555821561045a579182015b8281111561045957825182559160200191906001019061043e565b5b509050610467919061046b565b5090565b5b8082111561048457600081600090555060010161046c565b5090565b600061049b610496846106aa565b610685565b9050828152602081018484840111156104b357600080fd5b6104be848285610729565b509392505050565b6000813590506104d581610866565b92915050565b600082601f8301126104ec57600080fd5b81356104fc848260208601610488565b91505092915050565b60006020828403121561051757600080fd5b6000610525848285016104c6565b91505092915050565b6000806040838503121561054157600080fd5b600083013567ffffffffffffffff81111561055b57600080fd5b610567858286016104db565b925050602083013567ffffffffffffffff81111561058457600080fd5b610590858286016104db565b9150509250929050565b6105a3816106f7565b82525050565b60006105b4826106db565b6105be81856106e6565b93506105ce818560208601610738565b6105d78161082c565b840191505092915050565b60006105ef6019836106e6565b91506105fa8261083d565b602082019050919050565b600060208201905061061a600083018461059a565b92915050565b6000606082019050818103600083015261063a81866105a9565b9050818103602083015261064e81856105a9565b905061065d604083018461059a565b949350505050565b6000602082019050818103600083015261067e816105e2565b9050919050565b600061068f6106a0565b905061069b828261079d565b919050565b6000604051905090565b600067ffffffffffffffff8211156106c5576106c46107fd565b5b6106ce8261082c565b9050602081019050919050565b600081519050919050565b600082825260208201905092915050565b600061070282610709565b9050919050565b600073ffffffffffffffffffffffffffffffffffffffff82169050919050565b82818337600083830152505050565b60005b8381101561075657808201518184015260208101905061073b565b83811115610765576000848401525b50505050565b6000600282049050600182168061078357607f821691505b60208210811415610797576107966107ce565b5b50919050565b6107a68261082c565b810181811067ffffffffffffffff821117156107c5576107c46107fd565b5b80604052505050565b7f4e487b7100000000000000000000000000000000000000000000000000000000600052602260045260246000fd5b7f4e487b7100000000000000000000000000000000000000000000000000000000600052604160045260246000fd5b6000601f19601f8301169050919050565b7f506c65617365207375626d697420302e30303120657468657200000000000000600082015250565b61086f816106f7565b811461087a57600080fd5b5056fea26469706673582212202943ea423a29a498493949da11fadfc5e6566113a945509538aa9507f71a602a64736f6c63430008040033",
  "linkReferences": {},
  "deployedLinkReferences": {}
}